{
  "_format": "hh-sol-artifact-1",
  "contractName": "TokenContract",
  "sourceName": "contracts/TokenContract.sol",
  "abi": [
    {
      "inputs": [],
      "payable": false,
      "stateMutability": "nonpayable",
      "type": "constructor"
    },
    {
      "anonymous": false,
      "inputs": [
        {
          "indexed": true,
          "internalType": "address",
          "name": "owner",
          "type": "address"
        },
        {
          "indexed": true,
          "internalType": "address",
          "name": "spender",
          "type": "address"
        },
        {
          "indexed": false,
          "internalType": "uint256",
          "name": "value",
          "type": "uint256"
        }
      ],
      "name": "Approval",
      "type": "event"
    },
    {
      "anonymous": false,
      "inputs": [
        {
          "indexed": true,
          "internalType": "address",
          "name": "from",
          "type": "address"
        },
        {
          "indexed": true,
          "internalType": "address",
          "name": "to",
          "type": "address"
        },
        {
          "indexed": false,
          "internalType": "uint256",
          "name": "value",
          "type": "uint256"
        }
      ],
      "name": "Transfer",
      "type": "event"
    },
    {
      "constant": true,
      "inputs": [],
      "name": "DOMAIN_SEPARATOR",
      "outputs": [
        {
          "internalType": "bytes32",
          "name": "",
          "type": "bytes32"
        }
      ],
      "payable": false,
      "stateMutability": "view",
      "type": "function"
    },
    {
      "constant": true,
      "inputs": [],
      "name": "PERMIT_TYPEHASH",
      "outputs": [
        {
          "internalType": "bytes32",
          "name": "",
          "type": "bytes32"
        }
      ],
      "payable": false,
      "stateMutability": "view",
      "type": "function"
    },
    {
      "constant": true,
      "inputs": [
        {
          "internalType": "address",
          "name": "",
          "type": "address"
        },
        {
          "internalType": "address",
          "name": "",
          "type": "address"
        }
      ],
      "name": "allowance",
      "outputs": [
        {
          "internalType": "uint256",
          "name": "",
          "type": "uint256"
        }
      ],
      "payable": false,
      "stateMutability": "view",
      "type": "function"
    },
    {
      "constant": false,
      "inputs": [
        {
          "internalType": "address",
          "name": "spender",
          "type": "address"
        },
        {
          "internalType": "uint256",
          "name": "value",
          "type": "uint256"
        }
      ],
      "name": "approve",
      "outputs": [
        {
          "internalType": "bool",
          "name": "",
          "type": "bool"
        }
      ],
      "payable": false,
      "stateMutability": "nonpayable",
      "type": "function"
    },
    {
      "constant": true,
      "inputs": [
        {
          "internalType": "address",
          "name": "",
          "type": "address"
        }
      ],
      "name": "balanceOf",
      "outputs": [
        {
          "internalType": "uint256",
          "name": "",
          "type": "uint256"
        }
      ],
      "payable": false,
      "stateMutability": "view",
      "type": "function"
    },
    {
      "constant": true,
      "inputs": [],
      "name": "contractName",
      "outputs": [
        {
          "internalType": "string",
          "name": "",
          "type": "string"
        }
      ],
      "payable": false,
      "stateMutability": "view",
      "type": "function"
    },
    {
      "constant": true,
      "inputs": [],
      "name": "decimals",
      "outputs": [
        {
          "internalType": "uint8",
          "name": "",
          "type": "uint8"
        }
      ],
      "payable": false,
      "stateMutability": "view",
      "type": "function"
    },
    {
      "constant": true,
      "inputs": [],
      "name": "name",
      "outputs": [
        {
          "internalType": "string",
          "name": "",
          "type": "string"
        }
      ],
      "payable": false,
      "stateMutability": "view",
      "type": "function"
    },
    {
      "constant": true,
      "inputs": [
        {
          "internalType": "address",
          "name": "",
          "type": "address"
        }
      ],
      "name": "nonces",
      "outputs": [
        {
          "internalType": "uint256",
          "name": "",
          "type": "uint256"
        }
      ],
      "payable": false,
      "stateMutability": "view",
      "type": "function"
    },
    {
      "constant": false,
      "inputs": [
        {
          "internalType": "address",
          "name": "owner",
          "type": "address"
        },
        {
          "internalType": "address",
          "name": "spender",
          "type": "address"
        },
        {
          "internalType": "uint256",
          "name": "value",
          "type": "uint256"
        },
        {
          "internalType": "uint256",
          "name": "deadline",
          "type": "uint256"
        },
        {
          "internalType": "uint8",
          "name": "v",
          "type": "uint8"
        },
        {
          "internalType": "bytes32",
          "name": "r",
          "type": "bytes32"
        },
        {
          "internalType": "bytes32",
          "name": "s",
          "type": "bytes32"
        }
      ],
      "name": "permit",
      "outputs": [],
      "payable": false,
      "stateMutability": "nonpayable",
      "type": "function"
    },
    {
      "constant": true,
      "inputs": [],
      "name": "symbol",
      "outputs": [
        {
          "internalType": "string",
          "name": "",
          "type": "string"
        }
      ],
      "payable": false,
      "stateMutability": "view",
      "type": "function"
    },
    {
      "constant": true,
      "inputs": [],
      "name": "totalSupply",
      "outputs": [
        {
          "internalType": "uint256",
          "name": "",
          "type": "uint256"
        }
      ],
      "payable": false,
      "stateMutability": "view",
      "type": "function"
    },
    {
      "constant": false,
      "inputs": [
        {
          "internalType": "address",
          "name": "to",
          "type": "address"
        },
        {
          "internalType": "uint256",
          "name": "value",
          "type": "uint256"
        }
      ],
      "name": "transfer",
      "outputs": [
        {
          "internalType": "bool",
          "name": "",
          "type": "bool"
        }
      ],
      "payable": false,
      "stateMutability": "nonpayable",
      "type": "function"
    },
    {
      "constant": false,
      "inputs": [
        {
          "internalType": "address",
          "name": "from",
          "type": "address"
        },
        {
          "internalType": "address",
          "name": "to",
          "type": "address"
        },
        {
          "internalType": "uint256",
          "name": "value",
          "type": "uint256"
        }
      ],
      "name": "transferFrom",
      "outputs": [
        {
          "internalType": "bool",
          "name": "",
          "type": "bool"
        }
      ],
      "payable": false,
      "stateMutability": "nonpayable",
      "type": "function"
    }
  ],
  "bytecode": "0x60c0604052601960808190527f457665726e6f64652046756e64696e6720436f6e74726163740000000000000060a090815261003e9160009190610125565b5034801561004b57600080fd5b506040514690806052610c5d8239604080519182900360520182208282018252601083526f119d5b991a5b99c810dbdb9d1c9858dd60821b6020938401528151808301835260018152603160f81b908401528151808401919091527fe8db633d1fe3a2e61bb257754d366e72fc7f224d37833b1fe0df927eef24486c818301527fc89efdaa54c0f20c7adf612882df0950f5a951637e0307cdcb4c672f298b8bc6606082015260808101949094523060a0808601919091528151808603909101815260c090940190528251920191909120600455506101c0565b828054600181600116156101000203166002900490600052602060002090601f016020900481019282601f1061016657805160ff1916838001178555610193565b82800160010185558215610193579182015b82811115610193578251825591602001919060010190610178565b5061019f9291506101a3565b5090565b6101bd91905b8082111561019f57600081556001016101a9565b90565b610a8e806101cf6000396000f3fe608060405234801561001057600080fd5b50600436106100ea5760003560e01c806370a082311161008c57806395d89b411161006657806395d89b411461027e578063a9059cbb14610286578063d505accf146102b2578063dd62ed3e14610305576100ea565b806370a082311461022a57806375d0c0dc146102505780637ecebe0014610258576100ea565b806323b872dd116100c857806323b872dd146101c657806330adf81f146101fc578063313ce567146102045780633644e51514610222576100ea565b806306fdde03146100ef578063095ea7b31461016c57806318160ddd146101ac575b600080fd5b6100f7610333565b6040805160208082528351818301528351919283929083019185019080838360005b83811015610131578181015183820152602001610119565b50505050905090810190601f16801561015e5780820380516001836020036101000a031916815260200191505b509250505060405180910390f35b6101986004803603604081101561018257600080fd5b506001600160a01b03813516906020013561035f565b604080519115158252519081900360200190f35b6101b46103a5565b60408051918252519081900360200190f35b610198600480360360608110156101dc57600080fd5b506001600160a01b038135811691602081013590911690604001356103ab565b6101b4610469565b61020c61048d565b6040805160ff9092168252519081900360200190f35b6101b4610492565b6101b46004803603602081101561024057600080fd5b50356001600160a01b0316610498565b6100f76104aa565b6101b46004803603602081101561026e57600080fd5b50356001600160a01b0316610538565b6100f761054a565b6101986004803603604081101561029c57600080fd5b506001600160a01b03813516906020013561056a565b610303600480360360e08110156102c857600080fd5b506001600160a01b03813581169160208101359091169060408101359060608101359060ff6080820135169060a08101359060c00135610577565b005b6101b46004803603604081101561031b57600080fd5b506001600160a01b0381358116916020013516610775565b6040518060400160405280601081526020016f119d5b991a5b99c810dbdb9d1c9858dd60821b81525081565b60006103906040518060400160405280600d81526020016c036b9b39739b2b73232b9101d1609d1b81525033610792565b61039b33848461084d565b5060015b92915050565b60015481565b60006103cf604051806060016040528060308152602001610a2a6030913985610792565b6001600160a01b038416600090815260036020908152604080832033845290915290205460001914610454576001600160a01b038416600090815260036020908152604080832033845290915290205461042f908363ffffffff6108af16565b6001600160a01b03851660009081526003602090815260408083203384529091529020555b61045f8484846108ff565b5060019392505050565b7f6e71edae12b1b97f4d1f60370fef10105fa2faae0126114a169c64845d6126c981565b601281565b60045481565b60026020526000908152604090205481565b6000805460408051602060026001851615610100026000190190941693909304601f810184900484028201840190925281815292918301828280156105305780601f1061050557610100808354040283529160200191610530565b820191906000526020600020905b81548152906001019060200180831161051357829003601f168201915b505050505081565b60056020526000908152604090205481565b60405180604001604052806004815260200163105090d160e21b81525081565b600061039b3384846108ff565b428410156105bd576040805162461bcd60e51b815260206004820152600e60248201526d151bdad95b8e881156141254915160921b604482015290519081900360640190fd5b6004546001600160a01b0380891660008181526005602090815260408083208054600180820190925582517f6e71edae12b1b97f4d1f60370fef10105fa2faae0126114a169c64845d6126c98186015280840196909652958d166060860152608085018c905260a085019590955260c08085018b90528151808603909101815260e08501825280519083012061190160f01b6101008601526101028501969096526101228085019690965280518085039096018652610142840180825286519683019690962095839052610162840180825286905260ff89166101828501526101a284018890526101c28401879052519193926101e280820193601f1981019281900390910190855afa1580156106d8573d6000803e3d6000fd5b5050604051601f1901519150506001600160a01b0381161580159061070e5750886001600160a01b0316816001600160a01b0316145b61075f576040805162461bcd60e51b815260206004820152601860248201527f546f6b656e3a20494e56414c49445f5349474e41545552450000000000000000604482015290519081900360640190fd5b61076a89898961084d565b505050505050505050565b600360209081526000928352604080842090915290825290205481565b604080516001600160a01b0383166044820152602481019182528351606482015283516108499285928592829160840190602086019080838360005b838110156107e65781810151838201526020016107ce565b50505050905090810190601f1680156108135780820380516001836020036101000a031916815260200191505b5060408051601f198184030181529190526020810180516001600160e01b031663319af33360e01b17905293506109b992505050565b5050565b6001600160a01b03808416600081815260036020908152604080832094871680845294825291829020859055815185815291517f8c5be1e5ebec7d5bd14f71427d1e84f3dd0314c0f7b2291e5b200ac8c7c3b9259281900390910190a3505050565b8082038281111561039f576040805162461bcd60e51b815260206004820152601560248201527464732d6d6174682d7375622d756e646572666c6f7760581b604482015290519081900360640190fd5b6001600160a01b038316600090815260026020526040902054610928908263ffffffff6108af16565b6001600160a01b03808516600090815260026020526040808220939093559084168152205461095d908263ffffffff6109da16565b6001600160a01b0380841660008181526002602090815260409182902094909455805185815290519193928716927fddf252ad1be2c89b69c2b068fc378daa952ba7f163c4a11628f55a4df523b3ef92918290030190a3505050565b80516a636f6e736f6c652e6c6f67602083016000808483855afa5050505050565b8082018281101561039f576040805162461bcd60e51b815260206004820152601460248201527364732d6d6174682d6164642d6f766572666c6f7760601b604482015290519081900360640190fdfe23232323232323232323232323232323232323232323232323232323232323232323232323232323232366726f6d3a20a265627a7a72315820db205944a6443612ffc8546c3ccd7b51df3c0992e28272438a3407d86b2c0c0664736f6c63430005100032454950373132446f6d61696e28737472696e67206e616d652c737472696e672076657273696f6e2c75696e7432353620636861696e49642c6164647265737320766572696679696e67436f6e747261637429",
  "linkReferences": {},
  "deployedLinkReferences": {}
}